:020000040800F2
:1000000000000320B5150008F9130008FB130008D1
:10001000FD130008FF13000801140008051600086E
:1000200000000000000000000000000003140008B1
:100030000514000800000000071400080914000857
:100040000516000805160008051600080516000824
:100050000516000805160008051600080516000814
:100060000516000805160008051600080516000804
:1000700011140008051600080516000805160008EA
:1000800005160008051600080516000805160008E4
:1000900005160008051600080516000805160008D4
:1000A00005160008051600080516000805160008C4
:1000B00005160008051600080516000805160008B4
:1000C00005160008051600080516000805160008A4
:1000D0000516000805160008051600080516000894
:1000E0000516000805160008051600080516000884
:1000F0000516000805160008051600080516000874
:100100000516000805160008051600080516000863
:100110000516000805160008051600080516000853
:100120000516000805160008051600080516000843
:100130000516000805160008051600080516000833
:100140000516000805160008051600080516000823
:100150000516000805160008051600080516000813
:100160000516000805160008051600080516000803
:100170000516000800000000051600080000000039
:1001800005160008051600080516000805160008E3
:1001900005160008051600080516000805160008D3
:1001A00005160008051600080516000805160008C3
:1001B00005160008000000000516000805160008D6
:1001C00005160008000000000516000805160008C6
:1001D0000516000805160008051600080516000893
:1001E0000516000805160008051600080516000883
:0401F000000000000B
:1001F800844641EA000313F0030349D1403A23D36C
:100208000B6803604B6843608B688360CB68C3608E
:100218000B6903614B6943618B698361CB69C36176
:100228000B6A03624B6A43628B6A8362CB6AC3625E
:100238000B6B03634B6B43638B6B8363CB6BC36346
:1002480040304031403ADBD230320BD30B68036088
:100258004B6843608B688360CB68C3601030103193
:10026800103AF3D20C3205D351F8043B40F8043B62
:10027800043AF9D2043208D0D2071CBF11F8013B66
:1002880000F8013B01D30B8803806046704700BF2C
:10029800082A13D38B07B1D010F00303AED0C3F1F3
:1002A8000403D21ADB071CBF11F8013B00F8013B1D
:1002B800A4D331F8023B20F8023B9FE7043AD9D394
:1002C800013A11F8013B00F8013BF9D20B780370B1
:1002D8004B7843708B7883706046704781F000419B
:1002E80002E000BF83F0004330B54FEA41044FEA13
:1002F800430594EA050F08BF90EA020F1FBF54EAAE
:10030800000C55EA020C7FEA645C7FEA655C00F049
:10031800E2804FEA5454D4EB5555B8BF6D420CDD1A
:100328002C4480EA020281EA030382EA000083EA9D
:10033800010180EA020281EA0303362D88BF30BD3D
:1003480011F0004F4FEA01314FF4801C4CEA113193
:1003580002D0404261EB410113F0004F4FEA0333F2
:100368004CEA133302D0524263EB430394EA050F7D
:1003780000F0A780A4F10104D5F1200E0DDB02FAEC
:100388000EFC22FA05F2801841F1000103FA0EF280
:10039800801843FA05F359410EE0A5F120050EF146
:1003A800200E012A03FA0EFC28BF4CF0020C43FA77
:1003B80005F3C01851EBE37101F0004507D54FF084
:1003C800000EDCF1000C7EEB00006EEB0101B1F5D4
:1003D800801F1BD3B1F5001F0CD349085FEA30001A
:1003E8004FEA3C0C04F101044FEA445212F5800F25
:1003F80080F09A80BCF1004F08BF5FEA500C50F1C2
:10040800000041EB045141EA050130BD5FEA4C0CA4
:10041800404141EB0101013C28BFB1F5801FE9D201
:1004280091F0000F04BF01460020B1FA81F308BF24
:100438002033A3F10B03B3F120020CDA0C3208DDF0
:1004480002F1140CC2F10C0201FA0CF021FA02F1CB
:100458000CE002F11402D8BFC2F1200C01FA02F13B
:1004680020FA0CFCDCBF41EA0C019040E41AA2BF60
:1004780001EB0451294330BD6FEA04041F3C1CDA28
:100488000C340EDC04F11404C4F1200220FA04F048
:1004980001FA02F340EA030021FA04F345EA0301F2
:1004A80030BDC4F10C04C4F1200220FA02F001FAB4
:1004B80004F340EA0300294630BD21FA04F0294636
:1004C80030BD94F0000F83F4801306BF81F48011CF
:1004D8000134013D4EE77FEA645C18BF7FEA655C42
:1004E80029D094EA050F08BF90EA020F05D054EA14
:1004F800000C04BF1946104630BD91EA030F1EBF19
:100508000021002030BD5FEA545C05D1400049411C
:1005180028BF41F0004130BD14F580043CBF01F50F
:10052800801130BD01F0004545F0FE4141F47001F5
:100538004FF0000030BD7FEA645C1ABF19461046D0
:100548007FEA655C1CBF0B46024650EA013406BFD1
:1005580052EA033591EA030F41F4002130BD00BF90
:1005680090F0000F04BF0021704730B54FF480644D
:1005780004F132044FF000054FF0000150E700BFCE
:1005880090F0000F04BF0021704730B54FF480642D
:1005980004F1320410F0004548BF40424FF000011A
:1005A8003EE700BF42004FEAE2014FEA31014FEA5D
:1005B80002701FBF12F07F4393F07F4F81F06051AC
:1005C800704732F07F4208BF704793F07F4F04BFF7
:1005D80041F40021704730B54FF4607401F00045D4
:1005E80021F000411CE700BF50EA010208BF704734
:1005F80030B54FF000050AE050EA010208BF704725
:1006080030B511F0004502D5404261EB41014FF48D
:10061800806404F132045FEA915C3FF4D8AE4FF095
:1006280003025FEADC0C18BF03325FEADC0C18BF78
:10063800033202EBDC02C2F1200300FA03FC20FAC9
:1006480002F001FA03FE40EA0E0021FA02F1144416
:10065800BDE600BF70B54FF0FF0C4CF4E06C1CEA2F
:1006680011541DBF1CEA135594EA0C0F95EA0C0FA0
:1006780000F0DEF82C4481EA030621EA4C5123EA13
:100688004C5350EA013518BF52EA033541F4801142
:1006980043F4801338D0A0FB02CE4FF00005E1FBF5
:1006A80002E506F00042E0FB03E54FF00006E1FB3F
:1006B80003569CF0000F18BF4EF0010EA4F1FF0482
:1006C800B6F5007F64F5407404D25FEA4E0E6D41C2
:1006D80046EB060642EAC62141EA55514FEAC520D3
:1006E80040EA5E504FEACE2EB4F1FD0C88BFBCF54F
:1006F800E06F1ED8BEF1004F08BF5FEA500E50F100
:10070800000041EB045170BD06F0004646EA0101C5
:1007180040EA020081EA0301B4EB5C04C2BFD4EBF7
:100728000C0541EA045170BD41F480114FF0000EF0
:10073800013C00F3AB8014F1360FDEBF002001F05E
:10074800004170BDC4F10004203C35DA0C341BDCD8
:1007580004F11404C4F1200500FA05F320FA04F0AA
:1007680001FA05F240EA020001F0004221F00041DE
:1007780010EBD37021FA04F642EB06015EEA430E51
:1007880008BF20EAD37070BDC4F10C04C4F1200581
:1007980000FA04F320FA05F001FA04F240EA020034
:1007A80001F0004110EBD37041F100015EEA430E05
:1007B80008BF20EAD37070BDC4F1200500FA05F225
:1007C8004EEA020E20FA04F301FA05F243EA0203A4
:1007D80021FA04F001F0004121FA04F220EA0200B3
:1007E80000EBD3705EEA430E08BF20EAD37070BDF9
:1007F80094F0000F0FD101F00046400041EB0101D9
:1008080011F4801F08BF013CF7D041EA060195F0BA
:10081800000F18BF704703F00046520043EB030374
:1008280013F4801F08BF013DF7D043EA0603704761
:1008380094EA0C0F0CEA135518BF95EA0C0F0CD06C
:1008480050EA410618BF52EA4306D1D181EA0301B2
:1008580001F000414FF0000070BD50EA410606BFAC
:100868001046194652EA430619D094EA0C0F02D1F1
:1008780050EA013613D195EA0C0F05D152EA033636
:100888001CBF104619460AD181EA030101F0004154
:1008980041F0FE4141F470014FF0000070BD41F09D
:1008A800FE4141F4780170BD70B54FF0FF0C4CF477
:1008B800E06C1CEA11541DBF1CEA135594EA0C0F96
:1008C80095EA0C0F00F0A7F8A4EB050481EA030EE3
:1008D80052EA03354FEA013100F088804FEA0333CA
:1008E8004FF0805545EA131343EA12634FEA022298
:1008F80045EA111545EA10654FEA00260EF0004159
:100908009D4208BF964244F1FD0404F5407402D2AA
:100918005B084FEA3202B61A65EB03055B084FEA3B
:1009280032024FF480104FF4002CB6EB020E75EB38
:10093800030E22BFB61A754640EA0C005B084FEA60
:100948003202B6EB020E75EB030E22BFB61A7546DD
:1009580040EA5C005B084FEA3202B6EB020E75EB28
:10096800030E22BFB61A754640EA9C005B084FEAA0
:100978003202B6EB020E75EB030E22BFB61A7546AD
:1009880040EADC0055EA060E18D04FEA051545EA9C
:1009980016754FEA06164FEAC30343EA52734FEA45
:1009A800C2025FEA1C1CC0D111F4801F0BD141EABE
:1009B80000014FF000004FF0004CB6E711F4801F23
:1009C80004BF01430020B4F1FD0C88BFBCF5E06F03
:1009D8003FF6AFAEB5EB030C04BFB6EB020C5FEA13
:1009E800500C50F1000041EB045170BD0EF0004E68
:1009F8004EEA113114EB5C04C2BFD4EB0C0541EA9A
:100A0800045170BD41F480114FF0000E013C90E696
:100A180045EA060E8DE60CEA135594EA0C0F08BF5A
:100A280095EA0C0F3FF43BAF94EA0C0F0AD150EA59
:100A380001347FF434AF95EA0C0F7FF425AF1046EC
:100A480019462CE795EA0C0F06D152EA03353FF414
:100A5800FDAE1046194622E750EA410618BF52EA91
:100A680043067FF4C5AE50EA41047FF40DAF52EA65
:100A780043057FF4EBAE12E74FF0FF3C06E000BF02
:100A88004FF0010C02E000BF4FF0010C4DF804CD0F
:100A98004FEA410C7FEA6C5C4FEA430C18BF7FEACF
:100AA8006C5C1BD001B050EA410C0CBF52EA430CFD
:100AB80091EA030F02BF90EA020F0020704710F17D
:100AC800000F91EA030F58BF994208BF90422CBF0C
:100AD800D8176FEAE37040F0010070474FEA410C05
:100AE8007FEA6C5C02D150EA013C07D14FEA430C23
:100AF8007FEA6C5CD6D152EA033CD3D05DF8040B94
:100B0800704700BF8446104662468C4619466346C5
:100B180000E000BF01B5FFF7B7FF002848BF10F19C
:100B2800000F01BD4DF808EDFFF7F4FF0CBF0120E1
:100B380000205DF808FB00BF4DF808EDFFF7EAFF5D
:100B480034BF012000205DF808FB00BF4DF808ED18
:100B5800FFF7E0FF94BF012000205DF808FB00BF0D
:100B68004DF808EDFFF7CEFF94BF012000205DF897
:100B780008FB00BF4DF808EDFFF7C4FF34BF0120A4
:100B880000205DF808FB00BF4FEA410C7FEA6C5C6F
:100B980002D150EA013C0AD14FEA430C7FEA6C5C6F
:100BA80002D152EA033C02D14FF0000070474FF0E7
:100BB800010070474FEA410212F5001215D211D513
:100BC8006FF47873B3EB625212D94FEAC12343F042
:100BD800004343EA505311F0004F23FA02F018BFC4
:100BE800404270474FF00000704750EA013005D18D
:100BF80011F0004008BF6FF0004070474FF0000050
:100C0800704700BF0348044B834202D0034B03B133
:100C18001847704700070020000700200000000068
:100C2800064B0749C91A891048BF0131491003D03A
:100C3800044B0BB101481847704700BF000700205C
:100C4800000700200000000010B5064C237843B9C7
:100C5800FFF7D8FF044B13B10448AFF3008001231A
:100C6800237010BD000700200000000068AB0008DA
:100C780008B5054B1BB105490548AFF30080BDE831
:100C88000840FFF7CDBF00BF0000000004070020A8
:100C980068AB0008F0B583B005460C468800354BB4
:100CA80083FB0030043003F09DFC00218C460A468B
:100CB80002E00CF1010C1A4664452FDD531CDBB22F
:100CC80015F80CE008326A4402F804EC032BF0D162
:100CD8009DF804309A0801F1010E274EB25C425487
:100CE8001A0102F030029DF8053002EB13128F1C36
:100CF800B25C00F80E209B0003F03C039DF8062030
:100D080003EB921301F1030EF35CC35502F03F02AB
:100D1800B25C00F80E2004310023CAE7E2B19DF866
:100D280004309C084E1C144D2C5D4454012A17D0E5
:100D38001B0103F030039DF8052003EB12138D1CF3
:100D48000D4CE35C8355920002F03C02CB1CA25C84
:100D58004255591C3D22C2540023435403B0F0BDF0
:100D68001B0103F030038A1CEB5C8355CB1C3D212F
:100D78008154EEE756555555000000204FF060436A
:100D8800D3F8803E13F0010F11D04FF06043D3F831
:100D9800003E13F0010F01D1704700BF4FF06043D0
:100DA8001B68002BF9D0C3B24FF060421370704734
:100DB800F0B58BB000240594069407940894099420
:100DC8002C4BDA6C42F00402DA64DA6C02F00402AA
:100DD8000192019ADA6C42F08002DA64DA6C02F06D
:100DE80080020292029ADA6C42F00102DA64DA6C4A
:100DF80002F001020392039ADA6C42F00202DA640A
:100E0800DB6C03F002030493049B1B4F22464FF450
:100E18000051384600F068FE184D22460121284648
:100E280000F062FE4FF400530593012606960794DE
:100E3800089405A9384600F0D5FC0596069607944F
:100E4800089405A9284600F0CDFC022305934FF429
:100E580088130693079405A9284600F0C3FC224688
:100E680021460C2000F078FC0C2000F099FC0BB017
:100E7800F0BD00BF0010024000080242000002421C
:100E880010B50446FFF77AFF204610BDF0B585B0CF
:100E980002238DF8083004278DF8097000248DF896
:100EA8000A40144D22460121284600F01DFE124E2C
:100EB8004FF47A73032202A9304603F02FF84FF457
:100EC8007A733A460DEB0701304603F0AFFA012278
:100ED8001146284600F008FE019B03932046BDF802
:100EE8000C3063F30F00BDF80E3063F31F4005B0FC
:100EF800F0BD00BF0000024224070020F0B583B017
:100F080006460F461B4B1B68ADF804301B0C8DF8CA
:100F18000630194C00220121204600F0E5FD174D4E
:100F28004FF47A73032201A9284602F0F7FF4FF421
:100F38007A733A463146284603F078FA0122114678
:100F4800204600F0D1FD00220121204600F0CCFD12
:100F580008238DF804304FF47A73032201A9284638
:100F680002F0DCFF01221146204600F0BDFD03B06F
:100F7800F0BD00BF80AB000800000242240700203B
:100F88002DE9F04383B000AF0A4601F1030801F1EF
:100F98000A03DB086946A1EBC3039D4603268DF8C7
:100FA800006000258DF801508DF8025001460DEBC8
:100FB8000600FFF71DF9174C2A460121204600F0CC
:100FC80093FDDFF854904FF47A731FFA88F269465C
:100FD800484602F0A3FF01221146204600F084FD96
:100FE8002A460121204600F07FFD0C4B5B68BB8040
:100FF8001B0CBB714FF47A733246391D484602F018
:101008008DFF01221146204600F06EFD0C37BD46CB
:10101800BDE8F083000002422407002080AB0008EE
:1010280030B583B001248DF8004000228DF80120EE
:101038008DF80220FE238DF8033010490B782344E5
:10104800DBB20B708DF804308DF80500C0F3072073
:101058008DF806000A4D2146284600F045FD4FF45C
:101068007A7307226946074802F058FF224621464C
:10107800284600F039FD03B030BD00BF200700202E
:101088000000024224070020022800D07047B0B5B3
:1010980082B000AFFFF7FAFE78603B79022B04D0EC
:1010A800012B07D00837BD46B0BD04210C48FFF717
:1010B80067FFF7E76D46FC88E31DDB08A5EBC30374
:1010C8009D4622460021684603F062FD2146684697
:1010D800FFF714FF0A2003F015FEAD46E2E700BF54
:1010E80088AB000872B6FEE708B5002000F090FE55
:1010F80018B900F0ABFE10B908BDFFF7F3FFFFF712
:10110800F1FF000008B51148114B0360114B436013
:10111800002383600122C260036143618361C3616C
:10112800036200F015FD50B90021084800F0D0FD19
:1011380038B90021054800F01DFE20B908BDFFF7A9
:10114800D1FFFFF7CFFFFFF7CDFF00BF88070020D3
:1011580000580040C83AA00008B50F480F4B03607C
:101168004FF482734360002383604FF4E062C260EF
:10117800036143614FF4007282612822C2610362F5
:10118800436283620722C2620363436302F056FD2F
:1011980000B908BDFFF7A6FF240700200030014072
:1011A80000B599B04822002106A803F0F1FC002000
:1011B8000190029003900490059000F073FE20BB0C
:1011C800012306934FF480330793022311930322DC
:1011D800129206221392372214920722159216931E
:1011E800179306A800F0C2FF88B90F2301930323C1
:1011F80002930023039304930593052101A801F0AA
:101208007FFC30B919B05DF804FBFFF76BFFFFF7FF
:1012180069FFFFF767FF0000B0B582B000AF00F0CC
:1012280017FAFFF7BDFFFFF7C3FDFFF75DFFFFF7F5
:1012380069FFFFF791FF1C4C01221146204600F080
:1012480053FC0221204600F03BFC012809D0042071
:10125800FFF7E6FE0C211548FFF71CFD144B18603C
:10126800FEE7FFF713FE78603B79012BEFD16D465F
:10127800FC8821460F4803F031FDE31DDB08A5EB90
:10128800C3039D4621466846FFF738FE0A2003F04F
:1012980039FD0221044800F013FC012801D1AD46B4
:1012A800DFE7AD46D3E700BF000002429005FA0B26
:1012B8001C07002090AB000808B50A460146024802
:1012C80003F00CFD08BD00BFA8AB000800B583B053
:1012D8000B4B1A6E42F001021A661A6E02F00102F6
:1012E8000092009A9A6D42F080529A659B6D03F0C5
:1012F80080530193019B00F0BBFD03B05DF804FB34
:101308000010024010B5ACB0044600212791289186
:1013180029912A912B91942202A803F039FC226882
:10132800174B9A4201D02CB010BD8023029302A81B
:1013380001F0E2FE08BB134CE36C43F00203E364E4
:10134800E36C03F002030093009B4FF44063279380
:1013580012232893002329932A9304232B9327A944
:10136800094800F03FFAA36D43F48003A365A36D19
:1013780003F480030193019BD5E7FFF7B3FEDAE797
:1013880000580040001002400004024200B589B035
:101398000023039304930593069307930268124B63
:1013A8009A4202D009B05DF804FB03F560431A6E57
:1013B80042F480521A661A6E02F480520192019A1F
:1013C800DA6C42F00102DA64DB6C03F00103029389
:1013D800029BE0230393022304930523079303A9A5
:1013E800024800F0FFF9DDE700300140000002424A
:1013F800FEE7FEE7FEE7FEE7FEE770477047704747
:1014080008B500F037F908BD08B5022000F088FBE0
:1014180008BD0120704708B503F0DEF81623036005
:101428004FF0FF3008BD08B54FF0FF31FFF7F3FF6D
:10143800FEE770B50C461646002506E0AFF30080BF
:10144800214601F8010B01350C46B542F6DB304662
:1014580070BD70B50C461646002504E014F8010B63
:10146800FFF70EFD0135B542F8DB304670BD4FF091
:10147800FF3070474FF400534B6000207047012045
:10148800704700207047000010B503460C4A0D490C
:101498000D48006840B10C4800680344521A934252
:1014A80006D8094A136010BD0748084C0460F2E7E3
:1014B80003F092F80C2303604FF0FF30F3E700BF0E
:1014C8000000032000040000DC070020F80A0020C8
:1014D800704700002F4B1B6813F0080F16D12D4BD7
:1014E800D3F89430C3F303232B4A52F82320294B13
:1014F8009B6803F00C030C2B48D8DFE803F00C477B
:1015080047470F474747134747471700214B1B6873
:10151800C3F30313E8E7214B1A6028E01F4B204A66
:101528001A6024E01D4B1F4A1A6020E0194BD96845
:1015380001F00301DB68C3F303130133022904D06C
:1015480003291FD0B2FBF3F202E0154AB2FBF3F213
:101558001049CB68C3F3062302FB03F3CA68C2F33E
:10156800416201325200B3FBF2F30C4A1360094B9B
:101578009B68C3F303130C4AD15C084A1368CB4039
:1015880013607047074AB2FBF3F2E1E7034B1A60B6
:10159800EDE700BF00100240D8AB00084000002073
:1015A8000024F40000366E0118AC0008DFF834D0CF
:1015B800FFF78EFF002103E00B4B5B5843500431CB
:1015C8000A480B4B42189A42F6D30A4A02E0002313
:1015D80042F8043B084B9A42F9D303F02DFBFFF77E
:1015E8001BFEFEE70000032054B3000800000020A3
:1015F8000007002000070020F80A0020FEE700008E
:10160800104B1B780BB90120704710B504464FF4F6
:101618007A70B0FBF3F30C4A1068B0FBF3F000F0FB
:10162800CDF868B9072C01D901200AE0002221462B
:101638004FF0FF3000F090F8044B1C60002000E0F1
:10164800012010BD44000020400000204800002078
:1016580010B5042000F062F8FFF73CFF0720FFF701
:10166800CFFF10B10124204610BD0446FFF72EFE1F
:10167800F9E70000034B1B78034A11680B44136019
:10168800704700BF44000020E0070020014B1868A5
:10169800704700BFE0070020002807DB00F01F02AA
:1016A800400901239340024A42F82030704700BFA6
:1016B80000E100E0002808DB4901C9B200F1604000
:1016C80000F5614080F80013704700F00F004901F1
:1016D800C9B2014B1954704714ED00E000B500F091
:1016E8000700C0F1070CBCF1030F28BF4FF0030C33
:1016F800C31C062B0FD9031F4FF0FF3E0EFA0CF048
:1017080021EA000199400EFA03FE22EA0E0241EA9C
:1017180002005DF804FB0023EEE7000010B5044664
:10172800031F032B0FD80A4AD36823F4E0631B0472
:101738001B0C240204F4E064234343F0BF6343F426
:101748000033D36010BDAD210248FFF7B5FDEAE7CD
:1017580000ED00E028AC000870B506460C461546BA
:10176800072A0ED8072C11D80B4BD8682A462146D1
:10177800C0F30220FFF7B2FF01463046FFF79AFF99
:1017880070BDC5210548FFF797FDEBE7C621034863
:10179800FFF792FDE8E700BF00ED00E028AC000885
:1017A80010B5041E03DB2046FFF776FF10BDD921D4
:1017B8000148FFF781FDF6E728AC00080138B0F1D1
:1017C800807F0BD24FF0E0235861054AE02182F870
:1017D80023100020986107221A6170470120704782
:1017E80000ED00E02DE9F04180460C46B14B9842EF
:1017F8001FD003F5806398421BD003F5806398429D
:1018080017D003F58063984213D003F5806398429C
:101818000FD003F5806398420BD003F5806398429C
:1018280007D003F58063984203D0A621A248FFF7AA
:1018380043FD23689AB212B1B3F5803F03D3A721C1
:101848009D48FFF739FD6368012B10D9B3F5041FD4
:101858000DD011D8B3F5881F09D003D9B3F5901F5F
:1018680005D012E0032B04D9113B012B0DD800251C
:10187800ABE0022B09D3FAE7B3F5441FF7D0B3F571
:10188800481FF4D0B3F5081FF1D0A8218A48FFF704
:1018980013FDECE7E368032B17D8D8F80820690094
:1018A80003238B4022EA0302E3688B401343C8F802
:1018B8000830D8F8042022EA07026368C3F300134B
:1018C800AB401343C8F804308EE0B7217A48FFF7DD
:1018D800F3FCE2E7CA217848FFF7EEFC8DE0754B90
:1018E80098451FD003F5806398451BD003F58063A6
:1018F800984517D003F58063984513D003F58063A6
:1019080098450FD003F5806398450BD003F58063A5
:10191800984507D003F58063984503D0D6216648DB
:10192800FFF7CAFC23690F2B10D8EA08083258F8C9
:10193800220005F0070189000F238B4020EA0300ED
:1019480023698B40034348F8223068E0D7215A487E
:10195800FFF7B2FCE9E7062300E000238B400343CE
:101968005649183241F822300A68F34322EA060140
:10197800606810F4801F01D046EA02014F4A1160E6
:10198800526803EA0201606810F4001F01D046EAB9
:1019980002014A4A5160D2F8842003EA02016068D1
:1019A80010F4003F01D046EA0201444AC2F884100C
:1019B800D2F880201340616811F4803F01D046EAD4
:1019C80002033E4AC2F880300135266836FA05F22D
:1019D8006DD00127AF403E40F6D0636803F00303A3
:1019E800013B012B7FF656AF636803F00303032B1B
:1019F8000FD0A368022B3FF66DAFD8F80C20690012
:101A080003238B4022EA0302A3688B401343C8F8E0
:101A18000C30636803F00303022B3FF460AFD8F87F
:101A28000020690003238B4022EA0302636803F065
:101A380003038B401343C8F80030636813F4403F36
:101A4800C2D0AA0802F118011C4B53F8210005F076
:101A58000301C9000F238B4020EA0300154B98456A
:101A68003FF47BAF03F58063984516D003F5806398
:101A7800984514D003F58063984512D003F5806328
:101A8800984510D003F5806398450ED003F5806320
:101A980098453FF460AF072360E701235EE7022320
:101AA8005CE703235AE7042358E7052356E7BDE814
:101AB800F08100BF0000024284AC000800F402403C
:101AC80038B504460D4621B123691D4207D00120CF
:101AD80038BD4FF4BA710348FFF7EEFBF4E7002076
:101AE800F6E700BF84AC000870B5054614460E46FC
:101AF80021B1012C08D86CB1AE6170BD4FF4CA7128
:101B08000548FFF7D9FBF4E740F295110248FFF7C3
:101B1800D3FBF0E7AE62F0E784AC00087047000042
:101B280010B50446094BDB68034204D1074B1B6917
:101B38001C4205D110BD054BD860FFF7A5FAF5E7A3
:101B4800024B1C612046FFF7E9FFF3E700F402406F
:101B5800002800F0B78010B5044603685A4A93423B
:101B680010D002F5806293420CD002F58062934255
:101B780008D002F52052934204D040F2192153486C
:101B8800FFF79AFBA368B3F5806F60D2E368013B67
:101B9800012B62D8236913B1B3F5004F63D1636990
:101BA800FF2B66D8A369072B69D8E36913B1B3F58E
:101BB800002F6AD1236A13B1B3F5003F6BD194F8B3
:101BC8004130002B6DD0242384F8413022681368FB
:101BD80023F0010313606368226823F070631361C4
:101BE8002268936823F400439360E368012B5ED076
:101BF800A368226843F404439360E368022B5CD033
:101C08002268536843F0007343F40043536022682A
:101C1800D36823F40043D360236962691343A1693D
:101C2800226843EA0123D360E369216A22680B43EF
:101C380013602268136843F0010313600020606496
:101C4800202384F84130206384F8420010BD40F21C
:101C58001A211E48FFF730FB98E740F21B211B486A
:101C6800FFF72AFB96E74FF407711848FFF724FBA4
:101C780095E740F21D211548FFF71EFB92E740F259
:101C88001E211248FFF718FB8FE740F21F210F486B
:101C9800FFF712FB8EE74FF408710C48FFF70CFBB7
:101CA8008DE784F840302046FFF72CFB8BE7A368CC
:101CB800226843F4004393609FE723684FF400626F
:101CC8005A609DE70120704700540040E0AC0008CE
:101CD80038B504460D460368244A93420FD002F5EE
:101CE800806293420BD002F58062934207D002F5DE
:101CF8002052934203D063211D48FFF7DDFA15B146
:101D0800B5F5805F28D194F84130DBB2202B28D17B
:101D180094F84030012B26D0012384F84030242346
:101D280084F841302268136823F0010313602268A5
:101D3800136823F480531360226813682B431360DD
:101D48002268136843F001031360202384F84130AC
:101D5800002084F8400038BD64210548FFF7ACFA3C
:101D6800D1E70220F7E70220F5E700BF0054004062
:101D780038AD000838B504460D460368224A934238
:101D88000FD002F5806293420BD002F58062934235
:101D980007D002F52052934203D091211B48FFF748
:101DA8008BFA0F2D26D894F84130DBB2202B26D1A0
:101DB80094F84030012B24D0012384F840302423A8
:101DC80084F841302268136823F001031360226805
:101DD800136823F4706343EA0523136022681368C9
:101DE80043F001031360202384F84130002084F875
:101DF800400038BD92210548FFF75EFAD3E702207C
:101E0800F7E70220F5E700BF0054004038AD0008AE
:101E180010B5044608B104280CD10A4B1B6813F00E
:101E2800010F0CD1074A136823F0040323431360FE
:101E3800002010BDA9210448FFF73EFAEDE7012074
:101E4800F7E700BF0004034094AD0008034A136895
:101E580043F0010313600020704700BF00040340F3
:101E6800024B186800F4C060704700BF0070004063
:101E7800024A936843F480439360704700700040BF
:101E8800074B1B6913F4805006D113F4004F00D0A0
:101E980070474FF4004070474FF48050F8E700BF98
:101EA8000070004038B5054628B1B0F5007F02D073
:101EB800B0F5806F25D1214B1C6804F4C064FFF78E
:101EC800DFFFB0F5004F30D01C4BDB6813F4004F38
:101ED8002DD1A5422DD0194A136823F4C0632B4392
:101EE8001360174B1B685B09164AA2FB0323DB0927
:101EF800322202FB03F3144AA2FB0323DB0801335B
:101F080005E087211148FFF7D7F9D4E7013B0B4AD1
:101F1800526912F4806F01D0002BF7D1074B5B692F
:101F280013F4806F07D1002038BD0120FCE70120A1
:101F3800FAE70020F8E70320F6E700BF007000404A
:101F480040000020C55A7C0ACDCCCCCCF0AD0008AE
:101F58001F4AD36803F00303D268C2F303120132A5
:101F6800022B0DD0032B15D0012B1DD00020184BB0
:101F7800DB68C3F3416301335B00B0FBF3F07047E8
:101F88001448B0FBF2F0124BDB68C3F3062303FBE3
:101F980000F0ECE71048B0FBF2F00D4BDB68C3F340
:101FA800062303FB00F0E2E7094B1B6813F0080F58
:101FB80008D1074BD3F89430C3F30323074A52F8E8
:101FC8002300D4E7024B1B68C3F30313F6E700BFF3
:101FD800001002400024F40000366E01D8AB00085F
:101FE80030B583B00446214B9B6D13F0805F0CD055
:101FF800FFF736FFD0B1B0F5007F17D0802C2CD872
:102008002DD0702C2DD0002117E0184DAB6D43F06A
:102018008053AB65AB6D03F080530193019BFFF7D1
:102028001FFFAB6D23F08053AB65E3E7802C03D92A
:10203800A02C10D9022100E000210D4A136823F0DA
:102048000F030B431360136803F00F038B420AD18D
:10205800002003B030BD0121EFE70321EDE70221A5
:10206800EBE70121E9E70120F3E700BF0010024098
:1020780000200240314A9368D26802F0030213F04C
:102088000C030AD00C2B06D0042B1FD0082B20D011
:102098000020014610E0012AF6D1284A126812F001
:1020A800080F0CD1254AD2F89420C2F30322244900
:1020B80051F8221043B100200C2B0DD070471F4A55
:1020C8001268C2F30312F2E70846F5E71D4800213B
:1020D800F2E71D480021EFE7184BDA6802F0030227
:1020E800DB68C3F303130133022A0AD0032A1AD088
:1020F800B1FBF3F1114BD868C0F3062001FB00F0E7
:1021080008E01048B0FBF3F00C4BDB68C3F3062380
:1021180003FB00F0094BDB68C3F3416301335B0049
:10212800B0FBF3F0CAE70848B0FBF3F0034BDB68F9
:10213800C3F3062303FB00F0ECE700BF00100240E6
:10214800D8AB00080024F40000366E0108B5FFF78C
:1021580091FF044B9B68C3F30313034AD35CD84035
:1021680008BD00BF0010024018AC0008002800F0AD
:10217800A384F0B583B0044603683F2B23D89B4B58
:102188009D6805F00C05DE6806F00306236813F069
:10219800100F00F09380E369012B1AD8236AFF2BF4
:1021A8001DD8636A2BB3602B23D044D8302B20D0A2
:1021B8001BD9402B1DD0502B1BD040F2C5118C4889
:1021C800FFF77AF815E04FF4DD718948FFF774F8E6
:1021D800D5E740F2C3118648FFF76EF8DEE74FF403
:1021E800E2718348FFF768F8DBE7102B01D0202B5A
:1021F800E3D17DB30C2D2BD0E369002B00F0D58003
:102208007A4A136843F001031360FFF73FFA074661
:10221800764B1B6813F0020F40F0B480FFF736FAD4
:10222800C01B0228F4D9714B1B6813F0020FEFD1C1
:10223800032000F04CBC902BDBD004D9A02BD8D0C5
:10224800B02BD6D0B9E7702BD3D0802BD1D0B4E740
:10225800012ED1D1654B1B6813F0020F03D0E3693F
:10226800002B00F02B84606A604B1B6813F0080F8A
:1022780062D05E4B1B6803F0F003984263D85B4B57
:102288001A6842F008021A601A6822F0F002616ABD
:102298000A431A605A6822F47F42216A42EA0122FC
:1022A8005A60002D67D0FFF751FF524B1860524B10
:1022B8001868FFF7A5F9002840F00984236813F08F
:1022C800010F00F0A780636833B1B3F5803F03D0F6
:1022D800B3F5A02F40F08380082D00F092800C2DDC
:1022E80000F08C806368B3F5803F00F0C180B3F5DF
:1022F800A02F00F0C3803D4B1A6822F480321A6088
:102308001A6822F480221A606368002B00F0C380E8
:10231800FFF7BCF90746354B1B6813F4003F79D12A
:10232800FFF7B4F9C01B6428F5D9304B1B6813F4C8
:10233800003FF0D10320CAE32C4BD3F894301B099B
:1023480003F0F00399E7FFF74BFE002840F0B8834D
:10235800264B1A6842F008021A601A6822F0F00246
:10236800616A0A431A605A6822F47F42216A42EA83
:1023780001225A6097E7606AFFF732FE002892D080
:102388000120A4E3194B1A6842F008021A601A687F
:1023980022F0F002616A0A431A605A6822F47F4206
:1023A800216A42EA01225A6088E7104A136823F03A
:1023B80001031360FFF76AF907460C4B1B6813F01B
:1023C800020F3FF47BAFFFF761F9C01B0228F4D975
:1023D800064B1B6813F0020FEFD0032077E340F29F
:1023E80039210348FEF768FF76E700BF0010024076
:1023F8004CAE00084000002048000020032E7FF467
:1024080071AF9E4B1B6813F4003F03D06368002B29
:1024180000F05883236813F0020F6FD0E36813B1FC
:10242800B3F5807F4BD123697F2B4ED8042D54D030
:102438000C2D50D0E368002B00F09A808F4A136867
:1024480043F480731360FFF721F905468B4B1B6833
:1024580013F4806F40F08380FFF718F9401B0228BF
:10246800F4D9864B1B6813F4806FEFD103202EE359
:10247800824A136843F48033136045E703F18043CD
:10248800A3F53C331A6842F480221A601A6842F4B1
:1024980080321A6038E7FFF7F9F80746774B1B6870
:1024A80013F4003FB6D0FFF7F1F8C01B6428F5D944
:1024B800724B1B6813F4003FF0D0032007E34FF47E
:1024C8001D716F48FEF7F8FEADE740F275216C48C4
:1024D800FEF7F2FEAAE7022EACD1684B1B6813F494
:1024E800806F03D0E368002B00F0EE82634A5368E4
:1024F80023F0FE43216943EA01635360236813F024
:10250800080F79D06369012B4BD86369002B56D02B
:10251800A369002B4BD1594AD2F8943023F0100309
:10252800C2F89430554AD2F8943043F00103C2F807
:102538009430FFF7ABF80546504BD3F8943013F0BE
:10254800020F59D1FFF7A2F8401B0728F4D94B4BCB
:10255800D3F8943013F0020FEED10320B7E2474AC4
:10256800536823F0FE43216943EA01635360C5E7DA
:10257800424A136823F480731360FFF787F805460F
:102588003E4B1B6813F4806FB8D0FFF77FF8401BF1
:102598000228F5D9394B1B6813F4806FF0D003205B
:1025A80095E240F2BD213648FEF786FEADE7334A94
:1025B800D2F8943043F01003C2F89430B2E72F4AAF
:1025C800D2F8943023F00103C2F89430FFF75EF894
:1025D80005462A4BD3F8943013F0020F0CD0FFF7BE
:1025E80055F8401B0728F4D9244BD3F8943013F03E
:1025F800020FEED003206AE2236813F0040F00F004
:102608000381A3683BB1812B05D0012B03D0852B17
:1026180001D0052B29D1194B9B6D13F0805F2AD16E
:10262800164B9A6D42F080529A659B6D03F0805369
:102638000193019B0125134B1B6813F4807F23D062
:10264800A36813F0010F40D013F0040F35D00B4BE3
:10265800D3F8902042F00402C3F89020D3F89020D9
:1026680042F00102C3F890203CE040F2FB2104480C
:10267800FEF722FECFE70025DDE700BF001002408D
:102688004CAE000800700040874A136843F480731A
:102698001360FEF7FBFF0646834B1B6813F4807F2D
:1026A800CED1FEF7F3FF801B0228F5D97E4B1B68BD
:1026B80013F4807FF0D1032009E27C4AD2F89030ED
:1026C80043F00103C2F890300CE0784BD3F8902027
:1026D80022F00102C3F89020D3F8902022F00402DF
:1026E800C3F89020A368002B53D0FEF7CFFF06460F
:1026F8006E4BD3F8903013F0020F0ED1FEF7C6FFE1
:10270800801B41F288339842F2D9684BD3F8903055
:1027180013F0020FECD10320D9E1A36813F0800F66
:102728001BD0624AD2F8903043F08003C2F8903050
:102738005E4BD3F8903013F4006F64D1FEF7A6FF18
:10274800801B41F288339842F2D9584BD3F8903025
:1027580013F4006FECD10320B9E1544AD2F8903059
:1027680023F08003C2F89030504BD3F8903013F424
:10277800006F48D0FEF78AFF801B41F288339842E9
:10278800F2D94A4BD3F8903013F4006FECD0032001
:102798009DE1FEF77BFF0646444BD3F8903013F0DB
:1027A800020F0ED0FEF772FF801B41F28833984269
:1027B800F2D93E4BD3F8903013F0020FECD003203F
:1027C80085E13A4BD3F8903013F0800F1BD0374A8D
:1027D800D2F8903023F08003C2F89030334BD3F80E
:1027E800903013F4006F0ED0FEF750FF801B41F2BB
:1027F80088339842F2D92D4BD3F8903013F4006FF8
:10280800ECD0032063E12DBB236813F0200F51D0D7
:10281800A36A012B24D8A36A43B3244AD2F8983078
:1028280043F00103C2F89830FEF730FF05461F4B0E
:10283800D3F8983013F0020F3CD1FEF727FF401B66
:102848000228F4D9194BD3F8983013F0020FEED1BF
:1028580003203CE1154A936D23F080539365D3E739
:1028680040F297311248FEF727FDD4E70F4AD2F815
:10287800983023F00103C2F89830FEF707FF0546A9
:102888000A4BD3F8983013F0020F13D0FEF7FEFE70
:10289800401B0228F4D9054BD3F8983013F0020FE7
:1028A800EED0032013E100BF00700040001002408A
:1028B8004CAE0008E36A022B4DD8E36A002B00F007
:1028C80005818B4A926802F00C020C2A00F0C6803F
:1028D800022B40F0A380236B032B42D8636B013B90
:1028E8000F2B44D8A36B083B4E2B46D8E36B023B17
:1028F8001D2B48D8236C022B08D0082B49D84FF43D
:10290800A87222FA03F313F0010F42D0636C022B72
:1029180008D0082B43D84FF4A87222FA03F313F017
:10292800010F3CD0724A136823F080731360FEF7DE
:10293800ADFE05466E4B1B6813F0007F35D0FEF7E1
:10294800A5FE401B0228F5D9694B1B6813F0007FD0
:10295800F0D00320BBE040F2C7316648FEF7ACFC7C
:10296800ABE740F2D1316348FEF7A6FCB6E740F288
:10297800D2316048FEF7A0FCB4E740F2D3315D489D
:10298800FEF79AFCB2E74FF475715A48FEF794FCCB
:10299800B0E740F2D5315748FEF78EFCB6E740F273
:1029A800D6315448FEF788FCBCE7514AD3685249EF
:1029B8001940236B606B013843EA0013A06B43EAAC
:1029C8000023206C4008013843EA4053606C4008FB
:1029D800013843EA4063E06B43EAC0631943D160BE
:1029E800136843F080731360D36843F08073D36037
:1029F800FEF74CFE04463E4B1B6813F0007F0BD1DC
:102A0800FEF744FE001B0228F5D9394B1B6813F06A
:102A1800007FF0D103205AE0002058E0344A1368C0
:102A280023F080731360FEF731FE0446304B1B68B9
:102A380013F0007F0BD0FEF729FE001B0228F5D902
:102A48002B4B1B6813F0007FF0D003203FE0284A8F
:102A5800D1682A4B0B40D360002038E0012B38D0D6
:102A6800234BDB6803F00301226B914233D103F05F
:102A7800F002616B0139B2EB011F2ED103F4FE4263
:102A8800A16BB2EB012F2AD103F07842E16BB2EBD4
:102A9800C16F26D103F4C001226C5208013AB1EB90
:102AA800425F20D103F0C063626C5208013AB3EB75
:102AB800426F1AD100200AE001207047012006E089
:102AC800012004E0012002E0012000E0002003B022
:102AD800F0BD0120FBE70120F9E70120F7E701201D
:102AE800F5E70120F3E70120F1E70120EFE700BF58
:102AF800001002404CAE00080C809F01FCFFEEFE67
:102B0800002800F04F81F8B50D4604460368013BE4
:102B18000E2B28D80F2D2CD89C4B1B6803F00F03C5
:102B2800AB420BD2994A136823F00F032B4313606F
:102B3800136803F00F03AB4240F03681236813F0AB
:102B4800020F2FD0A36803B3B02B1ED017D8902B39
:102B58001BD0A02B19D0802B17D04FF493618C4831
:102B6800FEF7AAFB11E040F27F418948FEF7A4FB7B
:102B7800D0E74FF490618648FEF79EFBCCE7D02B58
:102B880003D0E02B01D0C02BE7D1A268814B9B6812
:102B980003F0F0039A4205D97E498B6823F0F003CD
:102BA8001A438A60236813F0010F7FD06368032BF0
:102BB80010D86368032B13D0022B2BD0002B42D1E3
:102BC80003F1804303F504331B6813F0020F27D188
:102BD8000120C8E040F2A3416D48FEF76DFBE8E72D
:102BE8006C4B1B6813F0007F01D10120BBE0FFF79D
:102BF800AFF9694B98422DD9664B9B6813F0F00FDB
:102C08002AD1644A936823F0F00343F08003936069
:102C1800802724E05F4B1B6813F4003F00F0C68058
:102C2800FFF728FA5C4B984218D95A4B9B6813F067
:102C3800F00F37D1574A936823F0F00343F080032D
:102C4800936080270BE0534B1B6813F4806FE7D128
:102C5800012088E0002702E0002700E000274D4A15
:102C6800936823F0030361680B439360FEF70EFD3E
:102C78000646484B9B6803F00C036268B3EB820F6F
:102C880012D0FEF703FD801B41F288339842F0D939
:102C9800404B9B6803F00C036268B3EB820FE8D0EB
:102CA800032060E00027DAE7002F5DD1236813F0E6
:102CB800020F0CD0A268374B9B6803F0F0039A42CE
:102CC80005D234498B6823F0F0031A438A602F4BEE
:102CD8001B6803F00F03AB420AD92C4A136823F090
:102CE8000F032B431360136803F00F03AB425FD14C
:102CF800236813F0040F14D0E3685BB1B3F5806F59
:102D080008D0B3F5A06F05D0B3F5C06F02D0B3F506
:102D1800E06F2FD11F4A936823F4E063E1680B4307
:102D28009360236813F0080F15D023695BB1B3F5DE
:102D3800806F08D0B3F5A06F05D0B3F5C06F02D08F
:102D4800B3F5E06F1CD1134A936823F460532169EB
:102D580043EAC1039360FFF7F9F9104B1860104B71
:102D68001868FEF74DFCF8BD0A4A936823F0F00393
:102D780093609BE740F21F510548FEF79DFAC9E7AB
:102D880040F226510248FEF797FADCE7002002409D
:102D98004CAE00080010024000B4C40440000020FB
:102DA80048000020012070470120DCE70120DAE715
:102DB8000120D8E770B504460E460368032B14D8E3
:102DC8006368013B0F2B16D8A368083B4E2B18D815
:102DD8002369B3F5803F1AD12368022B6DD0032BEA
:102DE80072D0012B19D0012070BD40F66D214048EA
:102DF800FEF762FAE4E740F66E213D48FEF75CFA1A
:102E0800E2E740F66F213A48FEF756FAE0E74FF45A
:102E180027613748FEF750FADEE7364B1B6813F098
:102E2800020F5ED0334A136823F080531360FEF715
:102E38002DFC05462F4B1B6813F0005F09D0FEF7E9
:102E480025FC431B022BF5D92A4B1B6813F0005FA6
:102E580049D1A6B9E368023B1D2B3CD825484369F4
:102E6800254A1A40A168E368DB0643EA0123616842
:102E7800013943EA011321680B431A4342611D4A91
:102E8800136843F080531360FEF700FC0546194BA6
:102E98001B6813F0005F09D1FEF7F8FB431B022BF8
:102EA800F5D9144B1B6813F0005F1ED0114A536903
:102EB80021690B435361002096E70E4B1B6813F4FE
:102EC800806FAFD101208FE70A4B1B6813F4C02F26
:102ED800A8D1012088E740F6A6210548FEF7ECF9BD
:102EE800BCE7012080E703207EE703207CE700BFE2
:102EF800A4AE0008001002400C80FF0770B504461D
:102F08000D460368032B1ED86368013B0F2B20D89E
:102F1800A368083B4E2B22D8A369714A134204D0F8
:102F280023F0887323F4803323B140F6E4116D480D
:102F3800FEF7C2F92368022B6AD0032B6FD0012B4E
:102F480013D0012070BD40F6E1116648FEF7B4F9D0
:102F5800DAE740F6E2116348FEF7AEF9D8E740F643
:102F6800E3116048FEF7A8F9D6E75F4B1B6813F03A
:102F7800020F00F0AF805C4A136823F0806313608F
:102F8800FEF784FB0646584B1B6813F0006F0AD007
:102F9800FEF77CFB831B022BF5D9534B1B6813F000
:102FA800006F40F09980002D46D1E368023B1D2B4D
:102FB8003CD84D4803694D4A1A40A168E368DB06CE
:102FC80043EA01236168013943EA011321680B438D
:102FD8001A430261444A136843F080631360FEF7A2
:102FE80055FB0546404B1B6813F0006F09D1FEF7EF
:102FF8004DFB431B022BF5D93B4B1B6813F0006FAD
:103008006CD0394A1369A1690B431361002099E711
:10301800354B1B6813F4806FADD1012092E7324B1A
:103028001B6813F4C02FA6D101208BE740F61A21A4
:103038002C48FEF741F9BCE7012D1FD06369022B2C
:1030480008D0082B40D84FF4A87222FA03F313F0E3
:10305800010F39D024480369254A1A40A1686369D9
:103068005B08013B5B0643EA01236168013943EAD7
:10307800011321680B431A430261ABE72369022B52
:1030880008D0082B1AD84FF4A87222FA03F313F0C9
:10309800010F13D014480369164A1A40A16823691E
:1030A8005B08013B5B0543EA01236168013943EA98
:1030B800011321680B431A4302618BE740F626216E
:1030C8000848FEF7F9F8E5E740F632210548FEF72B
:1030D800F3F8BFE7012035E7032033E7032031E7A2
:1030E80000001101A4AE0008001002400C80FF0788
:1030F8000C80FFF90C809FFF2DE9F04182B0044657
:103108000268954B134013B1944B1A4203D09A218D
:103118009348FEF7D1F8236813F4006F44D0E36EA8
:103128003BB1202B05D0402B03D0602B01D0802B46
:103138000DD1E36E402B25D011D853B3202B0BD1E2
:10314800002104F12000FFF735FE064626E0A02105
:103158008348FEF7B1F8ECE701273E4626E0602BEE
:1031680020D0802B0BD100267E4AD2F89C3023F049
:10317800E003E16E0B43C2F89C30002716E00127FC
:103188003E4613E0774AD36843F48033D360002681
:10319800EAE70021201DFFF7B1FE0646002EE3D026
:1031A800374603E00026DFE700273E46236813F48E
:1031B800805F46D0236F5BB1B3F5807F08D0B3F54D
:1031C800007F05D0B3F5407F02D0B3F5806F0FD1F3
:1031D800236FB3F5007F27D012D85BB3B3F5807F98
:1031E8000BD1002104F12000FFF7E4FD06460DE0B5
:1031F800D0215B48FEF760F8EAE701273E4620E069
:10320800B3F5407F02D0B3F5806F0AD1C6B9554AED
:10321800D2F89C3023F4E063216F0B43C2F89C3052
:103228000FE001273E460CE04E4AD36843F4803352
:10323800D360EBE70021201DFFF760FE0646E5E7B7
:103248003746236813F4003F00F09580D4F8903097
:1032580043B1B3F5807F05D0B3F5007F02D0B3F555
:10326800407F54D13F4B9B6D13F0805F55D13D4B50
:103278009A6D42F080529A659B6D03F080530193DA
:10328800019B4FF00108384A136843F480731360B8
:10329800FEF7FCF90546344B1B6813F4807F09D10F
:1032A800FEF7F4F9401B0228F5D92F4B1B6813F4DD
:1032B800807F4ED0002E59D12A4BD3F8903013F48A
:1032C800407316D0D4F890209A4212D0254AD2F8EA
:1032D800903023F44073D2F8901041F48031C2F852
:1032E8009010D2F8901021F48031C2F89010C2F8F2
:1032F800903013F0010F13D11A4AD2F8903023F40A
:103308004073D4F890100B43C2F890302FE04FF47C
:1033180081711348FDF7D0FFA4E74FF00008B2E72A
:10332800FEF7B4F905460F4BD3F8903013F0020FAF
:10333800E2D1FEF7ABF9401B41F288339842F2D94B
:10334800084BD3F8903013F0020FD5D103273E462F
:103358000DE003273E460AE0FF7F7F03008080FCE4
:10336800A4AE000800100240007000403746B8F1D3
:10337800000F40F03082236813F0010F10D0636B08
:10338800012B04D9032B02D0022B40F02A829F4A3A
:10339800D2F8883023F00303616B0B43C2F88830FE
:1033A800236813F0020F19D0A36B73B1043B082BE9
:1033B80006D840F2111222FA03F313F0010F04D1D8
:1033C80040F269119248FDF777FF904AD2F88830A9
:1033D80023F00C03A16B0B43C2F88830236813F069
:1033E800040F11D0E36B33B1102B04D0302B02D073
:1033F800202B40F0FC81854AD2F8883023F0300336
:10340800E16B0B43C2F88830236813F0080F11D022
:10341800236C33B1402B04D0C02B02D0802B40F05A
:10342800EC817A4AD2F8883023F0C003216C0B4330
:10343800C2F88830236813F0100F14D0636C4BB1B6
:10344800B3F5807F06D0B3F5407F03D0B3F5007F96
:1034580040F0D9816D4AD2F8883023F44073616C0A
:103468000B43C2F88830236813F0200F14D0A36CE4
:103478004BB1B3F5806F06D0B3F5406F03D0B3F509
:10348800006F40F0C681614AD2F8883023F4406367
:10349800A16C0B43C2F88830236813F4007F14D062
:1034A800E36D4BB1B3F5802F06D0B3F5002F03D0F1
:1034B800B3F5402F40F0B381544AD2F8883023F452
:1034C8004023E16D0B43C2F88830236813F4806F02
:1034D80014D0236E4BB1B3F5801F06D0B3F5001F8F
:1034E80003D0B3F5401F40F0A081484AD2F8883095
:1034F80023F44013216E0B43C2F88830236813F479
:10350800800F14D0636E4BB1B3F5800F06D0B3F5BE
:10351800000F03D0B3F5400F40F08D813B4AD2F83D
:10352800883023F44003616E0B43C2F88830236867
:1035380013F0007F15D0A36E33B1B3F1807F03D0B1
:10354800B3F1007F40F07D81A36EB3F1807F00F07E
:103558007E81B3F1007F00F08A81002B00F07C812E
:103568000127236813F0400F11D0E36C33B1B3F592
:10357800805F03D0B3F5005F40F08181234AD2F821
:10358800883023F44053E16C0B43C2F88830236839
:1035980013F0800F11D0236D33B1B3F5804F03D0F2
:1035A800B3F5004F40F07181184AD2F8883023F4FF
:1035B8004043216D0B43C2F88830236813F4807FA1
:1035C80011D0636D33B1B3F5803F03D0B3F5003F3D
:1035D80040F061810D4AD2F8883023F44033616DA0
:1035E8000B43C2F88830236813F4801F12D0A36DF0
:1035F800022B00F25681054AD2F89C3023F00303CF
:10360800A16D0B43C2F89C3004E000BF00100240DB
:10361800A4AE0008236813F4005F1DD0636F4BB19C
:10362800B3F1806F06D0B3F1006F03D0B3F1406FF0
:1036380040F03D81B64AD2F8883023F04063616F8C
:103648000B43C2F88830636FB3F1006F00F0358127
:10365800B3F1806F00F03681236813F4002F2ED069
:10366800A36F63B1B3F1806F09D0B3F1006F06D0D7
:10367800B3F1406F03D0B3F5804F40F02C81A36FB6
:10368800B3F5804F00F02D81A14AD2F8881021F0BF
:1036980040610B43C2F88830D2F89C3023F4804351
:1036A800C2F89C30A36FB3F1806F00F02281B3F1B0
:1036B800006F00F02781B3F5804F00F02D8123685B
:1036C80013F4802F1DD0E36F4BB1B3F1806F06D098
:1036D800B3F1006F03D0B3F1406F40F023818C4AFF
:1036E800D2F8883023F04063E16F0B43C2F888308A
:1036F800E36FB3F1006F00F01B81B3F1806F00F04E
:103708001C81236813F4804F19D0D4F8803033B16A
:10371800B3F1805F03D0B3F1405F40F017817C4A7A
:10372800D2F8883023F04053D4F880100B43C2F805
:103738008830D4F88030B3F1805F00F00D812368C1
:1037480013F4803F0FD0D4F8843013B1042B40F029
:103758000C816F4AD2F89C3023F00403D4F884100B
:103768000B43C2F89C30236813F4001F11D0D4F81F
:10377800883023B1082B02D0102B40F0FC80644A1B
:10378800D2F89C3023F01803D4F888100B43C2F801
:103798009C30236813F0807F19D0D4F88C3033B173
:1037A800B3F5801F03D0B3F5001F40F0EA80584AF4
:1037B800D2F89C3023F44013D4F88C100B43C2F891
:1037C8009C30D4F88C30B3F5001F00F0E080384608
:1037D80002B0BDE8F0814E4A936D23F080539365A3
:1037E800C9E540F25F114B48FDF766FDCFE540F2B1
:1037F80073114848FDF760FDFDE540F27D1145482D
:10380800FDF75AFD0DE640F287114248FDF754FDD9
:1038180020E640F291113F48FDF74EFD33E640F2B5
:103828009B113C48FDF748FD46E640F2A511394892
:10383800FDF742FD59E640F2AF113648FDF73CFD71
:103848006CE640F2B9113348FDF736FD7CE6304AA4
:10385800D36843F48013D3607EB92D4AD2F88830F8
:1038680023F04073A16E0B43C2F8883079E600213B
:10387800201DFFF743FB0646EEE7374671E640F2A8
:10388800E3112448FDF718FD78E640F2ED112148D0
:10389800FDF712FD88E640F2F7111E48FDF70CFD12
:1038A80098E640F201211B48FDF706FDA3E640F229
:1038B8000D211848FDF700FDBCE6D36843F48013DA
:1038C800D360C9E60121201DFFF718FB00283FF44B
:1038D800C3AE0746C0E640F22D210E48FDF7ECFCCA
:1038E800CDE60B4AD2F89C3043F48043C2F89C30B2
:1038F800D8E60121201DFFF701FB00283FF4DFAEC9
:103908000746DCE6024AD36843F48013D360D6E660
:1039180000100240A4AE00081F4AD36843F4803365
:10392800D360CCE640F251211C48FDF7C5FCD6E631
:10393800D36843F48013D360E3E60121201DFFF729
:10394800DDFA00283FF4DDAE0746DAE64FF41C71D5
:103958001248FDF7B1FCE2E60221201DFFF7CEFA7E
:1039680000283FF4ECAE0746E9E640F286210B4812
:10397800FDF7A2FCEDE64FF424710848FDF79CFC26
:10398800FDE640F29A210548FDF796FC0FE7D3685B
:1039980043F48013D3601AE700100240A4AE000875
:1039A8002DE9F04782B00546884617461E46FDF7C2
:1039B8006DFE0A9B1B1A03EB0609FDF767FE82469C
:1039C800284B1B68C3F3CB3309FB03F301932B6824
:1039D8009C6838EA04040CBF01230023BB423DD095
:1039E800B6F1FF3FF3D0FDF751FEA0EB0A004845C2
:1039F80007D2019A02B14A46019B013B01939146C5
:103A0800E5E72A68536823F0E00353606B68B3F571
:103A1800827F0BD0AB6AB3F5005F14D0012385F821
:103A28005D30002385F85C30032018E0AB68B3F5FF
:103A3800004F02D0B3F5806FECD12A68136823F0E9
:103A480040031360E6E72A68136823F40053136001
:103A58002A68136843F400531360DFE7002002B0BC
:103A6800BDE8F087400000202DE9F04782B0064607
:103A78000C4615461F4600238DF80330FDF706FE59
:103A88000A9B1B1A03EB0708FDF700FE8146D6F8D0
:103A980000A0304B1B6803EB8303C3EBC3031B0D70
:103AA80008FB03F3019302E0B7F1FF3F12D133683B
:103AB8009B6803EA040CAC4547D0B4F5C06FF3D15A
:103AC800002DF1D19AF80C30DBB28DF803309DF857
:103AD8000330E9E7FDF7DAFDA0EB0900404507D21E
:103AE800019A02B14246019B013B01939046DEE7F1
:103AF8003268536823F0E00353607368B3F5827F3C
:103B08000BD0B36AB3F5005F14D0012386F85D309B
:103B1800002386F85C30032018E0B368B3F5004F43
:103B280002D0B3F5806FECD13268136823F04003FC
:103B38001360E6E73268136823F4005313603268B1
:103B4800136843F400531360DFE7002002B0BDE8B8
:103B5800F08700BF4000002070B582B004460D46D3
:103B6800164600920B4600224FF4C051FFF77CFF27
:103B7800B0B900962B46002280212046FFF710FF9F
:103B8800A8B900962B4600224FF4C0612046FFF7E3
:103B98006BFF50B1236E43F020032366032004E03B
:103BA800236E43F020032366032002B070BD236E0A
:103BB80043F0200323660320F7E770B582B004467C
:103BC8000D4616464368B3F5827F0DD000962B4606
:103BD800002280212046FFF7E3FE90B96368B3F521
:103BE800827F14D002B070BD8368B3F5004F02D055
:103BF800B3F5806FEAD12268136823F0400313609D
:103C0800E4E7236E43F0200323660320EAE7A36872
:103C1800B3F5004F02D0B3F5806FE3D100962B4681
:103C280000224FF4C0612046FFF71EFF0028D9D0BC
:103C3800236E43F0200323660320D3E7002800F017
:103C4800678110B5044603686F4A93420CD0A2F509
:103C58007842934208D002F58062934204D040F241
:103C680045116A48FDF728FB636813B1B3F5827FF5
:103C78006AD1A3682BB1B3F5806F02D0B3F5004FBA
:103C880068D1E368B3F5706F23D0B3F5606F20D0C7
:103C9800B3F5506F1DD0B3F5406F1AD0B3F5306F40
:103CA80017D0B3F5206F14D0B3F5106F11D0B3F55A
:103CB800006F0ED0B3F5E06F0BD0B3F5C06F08D02E
:103CC800B3F5A06F05D0B3F5806F02D0B3F5407F90
:103CD80046D1A369B3F5007F03D013B1B3F5802FA4
:103CE80044D1636B082B01D0002B45D1E36993B114
:103CF800182B47D9382B09D8202B07D3203B4FF056
:103D0800013222FA03F313F0010F04D140F24B11F0
:103D18003E48FDF7D1FA236A0BB1802B3BD1636A89
:103D28000BB1102B3DD1636A002B73D123690BB102
:103D3800022B3CD16369012B3FD86368B3F5827FBE
:103D480041D00023E3617DE04FF4A3712F48FDF7D4
:103D5800B3FA8EE740F247112C48FDF7ADFA90E729
:103D68004FF4A4712948FDF7A7FAB2E740F24911C8
:103D78002648FDF7A1FAB4E74FF4A5712348FDF7EB
:103D88009BFAB3E7082BC1D3214A22FA03F313F0B5
:103D9800010FBBD0BFE74FF4A6711C48FDF78CFAA2
:103DA800BDE740F24D111948FDF786FABBE74FF41D
:103DB800A8711648FDF780FABCE740F25111134884
:103DC800FDF77AFAB9E7E369002B3BD0182B11D934
:103DD800382B09D8202B07D3203B4FF0013222FA89
:103DE80003F313F0010F2DD140F255110748FDF7E9
:103DF80063FA27E0082BF7D3054A22FA03F313F0F6
:103E0800010FF1D01EE000BF0030014000AF0008F4
:103E180000010101E36993B1182B67D9382B09D840
:103E2800202B07D3203B4FF0013222FA03F313F083
:103E3800010F04D140F25F113648FDF73DFA002327
:103E4800236163610023A36294F85D30002B56D090
:103E5800022384F85D302268136823F0400313605E
:103E6800E368B3F5E06F50D90022B3F5706F04D062
:103E7800B3F5E06F01D00023A362636803F4827393
:103E8800A16801F404410B43216901F002010B43CD
:103E9800616901F001010B43A16901F400710B4351
:103EA800E16901F038010B43216A01F080010B43FD
:103EB800A16A01F4005120680B430360638B03F08F
:103EC8000403616A01F010010B43616B01F0080102
:103ED8000B43E16801F470610B4321681A434A609F
:103EE80000202066012384F85D3010BD082BA1D383
:103EF800094A22FA03F313F0010F9BD09FE784F8D5
:103F08005C302046FDF742FAA2E74FF48052ACE756
:103F18000120704700AF0008000101012DE9F043BE
:103F280083B00446894690461D46836813B1B3F5AD
:103F3800004F4DD194F85C30012B00F0F98001233B
:103F480084F85C30FDF7A2FB074694F85D60F6B292
:103F5800012E40F0DA80B9F1000F00F0D780B8F1F7
:103F6800000F00F0D380032384F85D30002323661C
:103F7800C4F83890A4F83C80A4F83E802364A4F8E0
:103F88004430A4F846302365E364A368B3F5004FD2
:103F980024D023681A6812F0400F03D11A6842F03F
:103FA80040021A60E368B3F5E06F48D9636813B15B
:103FB800B8F1010F29D1A26B23681288DA60A36BCC
:103FC8000233A363E38F9BB2013B9BB2E3871CE000
:103FD8004FF44F715748FDF76FF9ABE72268136844
:103FE80023F0400313602268136843F4804313608E
:103FF800CFE7FDF74BFBC01BA84203D3B5F1FF3F4A
:1040080040F08E80002D00F08D80E38F9BB2002B56
:1040180066D023689A6812F0020FEAD0A26B128861
:10402800DA60A36B0233A363B4F83EC01FFA8CFCBA
:104038000CF1FF3C1FFA8CFCA4F83EC0E5E763686E
:1040480013B1B8F1010F33D1E38F9BB2012B0CD917
:10405800A26B23681288DA60A36B0233A363E38F31
:104068009BB2023B9BB2E38722E0A26B23681278E3
:104078001A73A36B0133A363E38F9BB2013B9BB21B
:10408800E38715E0A36B1B781373A36B0133A3635A
:10409800E38F9BB2013B9BB2E38709E0FDF7F6FA99
:1040A800C01BA84202D3B5F1FF3F3DD1002D3DD042
:1040B800E38F9BB2A3B12268936813F0020FEDD08F
:1040C800E38F9BB2012BDDD9A36B1B88D360A36B55
:1040D8000233A363E38F9BB2023B9BB2E387E7E71C
:1040E8003A4629462046FFF737FD08B120232366C4
:1040F800A36833B901932368DA6801929B68019336
:10410800019B236E13B9002600E00226012384F8E0
:104118005D30002384F85C30304603B0BDE8F0839E
:104128000326F3E70326F1E70326EFE70326EDE787
:104138000226F1E700AF00082DE9F8430446884657
:1041480091461F46089D8368002B66D194F85C3021
:10415800012B00F06781012384F85C30FDF796FAA3
:10416800064694F85D30DBB26268012B0AD0B2F5DE
:10417800827F40F03E81A268002A40F04381042BF0
:1041880040F04281B8F1000F00F04081B9F1000F12
:1041980000F03E81002F00F03D8194F85D30DBB2E5
:1041A800042B02D0052384F85D3000232366C4F86D
:1041B8004090A4F84670A4F84470C4F83880E787A3
:1041C800A787E3642365E368B3F5E06F01D8012F9F
:1041D80029D92268536823F48053536023681A68E6
:1041E80012F0400F03D11A6842F040021A60E368E7
:1041F800B3F5E06F5ED963680BB1012F0BD1A26BE9
:1042080023681288DA60A36B0233A363E38F9BB23F
:10421800013B9BB2E387012737E040F2F341824834
:10422800FDF74AF892E72268536843F480535360D5
:10423800D4E7A26B1288DA60A36B0233A363E38F1F
:104248009BB2013B9BB2E387002723689A6812F070
:10425800010F11D0B4F8462092B26AB1DA68236C23
:104268001A80236C02332364B4F846309BB2013BB6
:104278009BB2A4F846300127FDF708FA831BAB422E
:1042880003D3B5F1FF3F40F0C780E38F9BB22BB952
:10429800B4F846309BB2002B00F0A18023689A68DE
:1042A80012F0020FD1D0E28F92B2002ACDD0002FA7
:1042B800CBD0BEE763680BB1012F0FD1E38F9BB260
:1042C800012B0DD9A26B23681288DA60A36B023325
:1042D800A363E38F9BB2023B9BB2E387012749E0CC
:1042E800A26B236812781A73A36B0133A363E38F5D
:1042F8009BB2013B9BB2E387F0E7E28F92B2012ABF
:104308000CD9A26B1288DA60A36B0233A363E38F24
:104318009BB2023B9BB2E38700273DE0A26B127879
:104328001A73A36B0133A363E38F9BB2013B9BB268
:10433800E387002730E02268536843F480535360D2
:1043480001270DE0226C1B7B1370236C013323645F
:10435800B4F846309BB2013B9BB2A4F84630012723
:10436800FDF794F9801BA84202D3B5F1FF3F55D160
:10437800002D55D0E38F9BB223B9B4F846309BB2D9
:10438800002B2CD023689A6812F0020F04D0E28F19
:1043980092B20AB1002FB0D123689A6812F0010FC7
:1043A800DED0B4F8462092B2002AD9D0B4F846201C
:1043B80092B2012AC6D9DA68236C1A80236C0233B8
:1043C8002364B4F846309BB2023B9BB2A4F8463053
:1043D800B4F846309BB2012BADD90127C0E732466D
:1043E80029462046FFF7B8FB20B120232366012089
:1043F80000E00220012384F85D30002384F85C305B
:10440800BDE8F8830220F5E70220F3E70120F1E791
:104418000120EFE70120EDE70320EBE70320E9E7C0
:104428000320E7E70220EBE700AF00082DE9F0439F
:1044380083B00446884691461D464068B0F5827FA1
:1044480043D094F85C30012B00F0C380012384F83A
:104458005C30FDF71BF9074694F85D60F6B2012E53
:1044680040F0A480B8F1000F00F0A180B9F1000F6E
:1044780000F09D80042384F85D3000232366C4F88F
:104488004080A4F84490A4F84690A363A387E387E8
:10449800E3642365E368B3F5E06F24D922685368C1
:1044A80023F480535360A368B3F5004F21D02368E9
:1044B8001A6812F0400F03D11A6842F040021A60DD
:1044C800E368B3F5E06F29D94AE0A368002BB8D1B7
:1044D800042384F85D30009513460A462046FFF70A
:1044E8002BFE064669E02268536843F48053536004
:1044F800D9E72268136823F0400313602268136821
:1045080023F480431360D2E7FDF7C0F8C01BA8422C
:1045180002D3B5F1FF3F54D1002D54D0B4F8463042
:104528009BB2002B36D023689A6812F0010FEBD0AB
:10453800226C1B7B1370236C01332364B4F8463060
:104548009BB2013B9BB2A4F84630E7E7FDF79EF823
:10455800C01BA84202D3B5F1FF3F36D1002D36D09B
:10456800B4F846309BB2ABB123689A6812F0010FD9
:10457800ECD0DA68236C1A80236C02332364B4F815
:1045880046C01FFA8CFC0CF1FF3C1FFA8CFCA4F807
:1045980046C0E5E73A4629462046FFF70EFB08B134
:1045A80020232366236E13B9002600E00226012388
:1045B80084F85D30002384F85C30304603B0BDE8F1
:1045C800F0830326F3E70326F1E70326EFE7032644
:1045D800EDE70226F1E70000014B1868704700BFBD
:1045E80064040020024B0146186800F003B800BFBD
:1045F8006404002001F10B03162B2DE9F04F074648
:1046080085B023D8102900F2AF8000F083FB102575
:1046180018230220BE4E33445C68A3F1080294427A
:1046280000F02B816368384623F00303D4E90212B3
:1046380023440834CA6091605A6842F001025A6003
:1046480000F06EFB204605B0BDE8F08F002B23F08C
:104658000705C0F28980A94200F2868000F05AFB63
:10466800B5F5FC7FC0F06F816B0A00F08180042BE8
:1046780000F22981AB0903F1390003F1380EC300B8
:10468800A34E3344A3F1080C5C68A44507D10DE0A0
:10469800002AE16880F2E1808C450C4606D0636808
:1046A80023F003035A1B0F2AF2DD7046DFF86482F9
:1046B8003469444500F0BD80636823F0030CACEB1B
:1046C80005030F2B00F34F81002BC6E9048880F205
:1046D8003E81BCF5007FD6F804E080F0D4804FEA34
:1046E800DC0301224FEA5C1C013302FA0CF256F893
:1046F80033104EEA020E06EBC302083AC6F804E08D
:10470800C4E9021246F83340CC6083104FF0010C24
:104718000CFA03FCF44531D81CEA0E0F07D120F03F
:1047280003004FEA4C0C04301CEA0E0FF9D006EBDC
:10473800C00A8146D646DEF80C300BE05A681C46A3
:10474800DB6822F00302511B0F2900F3C8800029FF
:1047580080F2EC809E45F1D109F101090EF1080EB5
:1047680019F0030FE7D129E10C233B60002469E726
:104778004FF4007340204FF03F0E81E7B468636840
:1047880023F00309A9EB05030F2B01DDA94553D23B
:10479800614B0820DFF884B11B6803F1100800F0B2
:1047A8008FFADBF8003004EB0902A84401900133CA
:1047B80005D008F1FF384342804403EA080841461F
:1047C8003846029200F058FDB0F1FF3F8246029A47
:1047D80000F0E680824200F2E180514B01991868AE
:1047E80001F1FF3140448446186040F008811AEA1C
:1047F800010F40F00481C844D6F808A048F001022F
:10480800CAF80420474B54461968814238BF1860DB
:10481800454B1968814238BF186022F00308A8EB9D
:1048280005030F2B01DDA84506D2384600F078FABB
:104838009CE7D6F804E068E7621945F0010543F003
:104848000103083444F8045C3846B260536000F051
:1048580067FA204605B0BDE8F08FA2682344083403
:104868003846D1608A605A6842F001025A6000F006
:1048780057FA204605B0BDE8F08FDC68A3427FF404
:10488800D1AE023012E7BCF5206F4FEA5C227ED32E
:10489800142A00F2188102F15C035B32DB00F11884
:1048A800F3580839994203D1F2E09B68994204D041
:1048B8005A6822F003026245F7D8D968C4E9023180
:1048C8008C60DC6021E7142B6DD9542B00F2048135
:1048D8002B0B03F16F0003F16E0EC300D0E6D4F882
:1048E80008C03846671945F001056560CCF80C30FA
:1048F800C3F808C041F00103C6E90477C7F8088087
:10490800C7F80C807B60A150083400F009FA99E6DA
:104918005800002060000020140800204C000020EF
:10492800E4070020100800200C0800202244384624
:10493800516841F00101516054F8082FD3609A6022
:1049480000F0EEF97EE6E80805F1080362E6A44403
:1049580038460834DCF8043043F00103CCF804305E
:1049680000F0DEF96EE6621943F0010145F0010539
:1049780038466560C6E90422C2F80880C2F80C808F
:10498800516044F80C30083400F0CAF95AE64FEA8E
:104998009C1202F139033832DB0080E7B44226D09A
:1049A800B468626839E703F15C0003F15B0EC30089
:1049B80066E65AF80839534540F0DC8010F0030FDA
:1049C80000F1FF30F5D1736823EA0C0373604FEAF6
:1049D8004C0C0CF1FF329A4204D3CFE64FEA4C0C50
:1049E80009F104091CEA030FF8D048469FE6624B18
:1049F80001991868013908EB000CC3F800C0DBF80E
:104A08000000013072D0AAEB020262441A601AF068
:104A18000702CDE9022345D0C2F10802019B3846BE
:104A280092441344D04408EA010CA3EB0C0202EAB6
:104A3800010B594600F020FC421C039B72D0A0EBEE
:104A48000A0000EB0B08186848F00102B442C6F8E7
:104A580008A05844CAF8042018603FF4D3AEB9F14E
:104A68000F0F46D96168A9F10C024FF0050C22F02E
:104A7800070201F0010111430F2A616004EB0201F2
:104A8800C1F804C0C1F808C054D8DAF80420B9E65F
:104A980092104FF0010C0CFA02F24EEA020EC6F820
:104AA80004E00BE70AEB0802019B38460A409A1A11
:104AB80002EA010B594600F0DFFB431C039BBED101
:104AC800DDF808B0BFE7542A17D84FEA1C3202F1C4
:104AD8006F036E32DB00E2E6B3F5AA7F17D8EB0B63
:104AE80003F1780003F1770EC300C9E5CBF800A005
:104AF8008DE70123CAF8043097E6B2F5AA7F24D8D7
:104B08004FEADC3202F178037732DB00C7E640F285
:104B18005452934224D8AB0C03F17D0003F17C0E70
:104B2800C300ADE5029A4FF0000B083A9044A8EB99
:104B38000A0888E7384604F10801019300F054FA9E
:104B4800019BD6F808A018689FE740F254539A4290
:104B58000CD84FEA9C4202F17D037C32DB009EE6D2
:104B68004FF47E737F204FF07E0E89E54FF47E73FD
:104B78007E2294E673682AE7E4070020024B13B10B
:104B8800024800F0D3B8704700000000914C0008BC
:104B980070B586074AD0541E002A41D0CAB20346CF
:104BA80001E0013C3CD303F8012B9D07F9D1032C0C
:104BB8002FD9CDB20F2C05EB052505EB054538D9C6
:104BC800A4F1100C03F1100E1A462CF00F064FEA50
:104BD8001C1CB6441560103242F80C5C42F8085CA4
:104BE80042F8045C7245F5D10CF1010214F00C0F87
:104BF80004F00F0C03EB021213D0ACF1040323F002
:104C080003030433134442F8045B9A42FBD10CF0CB
:104C180003042CB1C9B21C4403F8011B9C42FBD10C
:104C280070BD64461346002CF4D1F9E703461446D8
:104C3800BDE71A46A446E0E70F4B70B50F4DAB42EF
:104C4800A3EB050607D0B6100024013455F8043B41
:104C58009847A642F9D80A4D05F082FF094B5E1B1A
:104C6800AB424FEAA60606D00024013455F8043BAF
:104C78009847A642F9D870BD48B3000848B3000861
:104C880048B3000850B3000838B5074D074C2C1B33
:104C9800A41005D0013C55F8043D9847002CF9D1E3
:104CA800BDE8384005F062BF54B3000850B30008AF
:104CB800704700BF704700BF704700BF704700BF14
:104CC800082802D14FF48050704708B5FFF784FCDC
:104CD800162203464FF0FF301A6008BD0FB408498A
:104CE80000B583B0086804AB816853F8042B0193BE
:104CF80000F00CFB03B05DF804EB04B0704700BF94
:104D080064040020024B01461868826803F08CBBDB
:104D1800640400200148FFF7CFBF00BF1C08002033
:104D28000148FFF7CBBF00BF1C0800200023014645
:104D38001A46184603F0D8B9024A0349034800F056
:104D4800C3BA00BF88050020D58100086804002088
:104D58000C4B4168994210B5044601D003F036FA6D
:104D6800A168094B994202D0204603F02FFAE16866
:104D7800064B994204D02046BDE8104003F026BAFD
:104D880010BD00BF2808002090080020F808002067
:104D98002DE9F843314A0025314C04233149DFF825
:104DA800C89004F15C00DFF8C480314F314E1160C7
:104DB8002946082225606566C4E90335C4E901551A
:104DC800C4E90555FFF7E4FE04F15800E662C4E9BA
:104DD8000749C4E90987FFF76BFF274B29460822D3
:104DE80004F1C40063672567C4F8CC50C4F8805048
:104DF800C4E91A55C4E91E55FFF7CAFE04F1680351
:104E080004F1C000C4F88430C4E92298C4E92476C7
:104E1800FFF74EFF194B294604F596700822C4F88F
:104E2800DC30C4F8D850C4F83451C4F8E850C4E9A8
:104E38003455C4E93855FFF7ABFE04F1D00304F547
:104E48009470C4F8F090C4F8FC60C4F8EC30C4E97D
:104E58003D87BDE8F843FFF72BBF00BF600900207E
:104E680028080020414D0008ED51000811520008A3
:104E7800515200087952000809000100120002008E
:104E880010B504460A48FFF717FF636B23B9094BAF
:104E9800094A1B68626323B10548BDE81040FFF763
:104EA8000DBFFFF775FF0248BDE81040FFF706BFCA
:104EB8002408002060090020594D00080148FFF728
:104EC800FBBE00BF240800200148FFF7F7BE00BF63
:104ED8002408002020F0030110F00300C0F10000B6
:104EE80051F8043B00F1040C4FEACC0C6FF00002BF
:104EF8001CBF22FA0CF213434FF0010C4CEA0C2CA5
:104F08004CEA0C4CA3EB0C0222EA030212EACC1284
:104F180004BF51F8043B0430F4D0C2F1000102EAA6
:104F28000102B2FA82F2C2F11F0200EBD20070470E
:104F38002DE9F8430646DFF8A48008208946FFF7E4
:104F4800BFFE05463046FFF7E5FED8F808305F6833
:104F580027F00307A7F11104A4EB09042C44B4FBC0
:104F6800F5F4013C05FB04F4A54208DC00213046B9
:104F780000F082F9D8F808303B44984205D0304612
:104F8800FFF7CEFE0020BDE8F8836142304600F00E
:104F980073F901300FD03F1B114AD8F8083030465A
:104FA80047F001075F6013681B1B1360FFF7B8FE2B
:104FB8000120BDE8F8830021304600F05DF9D8F8FB
:104FC8000820831A0F2BDADD43F0010304495360EC
:104FD800044B1B68C01A0860D1E700BF58000020C6
:104FE800E40700204C00002000297CD0F8B50C46CE
:104FF8000646FFF78FFE784F54F8043CA4F10805E5
:10500800D7F808C023F0010168184268844522F0E7
:10501800030200F08380DB0700EB020C426033D40C
:1050280054F8084CDCF8043007F1080C2D1B214417
:1050380003F00103AC68644564D0D5F80CE0C4F80B
:105048000CE0CEF80840002B00F0818041F001030D
:105058006B600160B1F5007F22D2CB0801224909BB
:1050680001338A4079680A4357F833107A6007EBAE
:10507800C302083AC5E9021247F83350CD603046FA
:10508800BDE8F840FFF74CBEDCF80430DB072BD551
:1050980041F00103B1F5007F44F8043C0160DCD322
:1050A800B1F5206F4FEA512353D28B0903F1390030
:1050B80003F13802C300F818FB580838984203D1A6
:1050C80063E09B68984204D05A6822F003028A423F
:1050D800F7D8D868C5E9023085603046DD60BDE89C
:1050E800F840FFF71DBE7047114407F1080C8368AC
:1050F80063453FD0C268DA60936041F001036B609A
:105108006950A7E7002B61D10A44D0E90213CB60AC
:10511800996042F001036B60AA50B0E70A44D907CE
:1051280007D454F8083CED1A1A44D5E90213CB60A9
:10513800996042F001036B60284BBD601B68934285
:105148009DD8274B30461968FFF7F2FE97E71144C0
:10515800CDE7142B08D9542B1FD80B0B03F16F0084
:1051680003F16E02C300A6E703F15C0003F15B02E2
:10517800C300A0E741F001033D617D61C5F808C0A7
:10518800C5F80CC06B60695079E70121921001FAEB
:1051980002F279680A437A609CE7B3F5AA7F06D8D9
:1051A800CB0B03F1780003F17702C30083E740F2E9
:1051B8005452934206D88B0C03F17D0003F17C0214
:1051C800C30078E74FF47E737E2274E741F0010351
:1051D8006B60016053E700BF5800002050000020BA
:1051E8001408002010B50C46B1F90E1004F016FB97
:1051F800002803DB236D0344236510BDA38923F432
:105208008053A38110BD00BF2DE9F0410C46B1F9D0
:105218000C101F460546CB0516460BD421F48051C9
:105228003B4632462846A181B4F90E10BDE8F0414C
:1052380000F034B8B4F90E100223002204F0D8FAB2
:10524800B4F90C10EAE700BF10B50C46B1F90E101E
:1052580004F0CEFA421CB4F90C3004D043F4805365
:105268002065A38110BD23F48053A38110BD00BF26
:10527800B1F90E1004F00CB938B50022064D0446F9
:1052880008462A60FCF700F9431C00D038BD2B689B
:10529800002BFBD0236038BDF40A002038B50C463B
:1052A80084461146074D1A460023204664462B6063
:1052B800FCF7CFF8431C00D038BD2B68002BFBD07F
:1052C800236038BDF40A00202DE9F8434FF00009A7
:1052D800074688461646D6E90154013D10D4A389ED
:1052E800013D012B08D9B4F90E3021463846013367
:1052F80002D0C04749EA00096B1C04F16804EED1EA
:105308003668002EE7D14846BDE8F8832DE9F04F0E
:10531800E3B016461C4683460B9102F053FF036820
:105328000DF1C809109418461B93FFF7D3FD082206
:105338001A9000214846FFF72BFCBBF1000F04D060
:10534800DBF83430002B01F0D4800B9B5A6EB3F994
:105358000C30D10702D49A0540F1D9869F0407D4AE
:105368000B9943F400534A6E8B8122F400524A662B
:105378001D0740F1D1800B9A1269002A00F0CC80F9
:1053880003F01A020A2A00F0D68000230024B2464D
:105398009E46CDE9373339ABCDF880E0CDF830E023
:1053A80036930A930023CDF850E0CDE91CEECDE901
:1053B8001EEECDE918345646924BD3F8E44002F07D
:1053C800FBFE324603462EA95846CDF80090A0476A
:1053D8000028034600F0CE80C0F2C4802E9A252A09
:1053E80001D01E44E8E7B6EB0A07054640F0C68040
:1053F800002306F1010A1A468DF8AF300E93737830
:105408004FF0FF3607920AF1010AA3F120025A2A47
:1054180000F2FA80DFE812F02303F800F8001C031A
:10542800F800F800F8006B00F800F8008E02A002FF
:10543800F8009902AD02F800A6025B005B005B0071
:105448005B005B005B005B005B005B00F800F80042
:10545800F800F800F800F800F8007A01F8001602E1
:105468006A037A017A017A01F800F800F800F80076
:105478006303F800F8002E03F800F800F80034027F
:10548800F8005003F800F800B007F800F800F8003A
:10549800F800F800F800F800F8007A01F8001602A1
:1054A80066027A017A017A01460366020F02F80061
:1054B8008403F8000E03AD07CE020F02F800340291
:1054C8007D00D507F800F800D907F8007D00A3F1A2
:1054D80030020023194601EB81011AF8013B02EB67
:1054E8004101A3F13002092AF5D90E918DE75846FA
:1054F80002F068FE436818462093FFF7EBFC1E9005
:105508000446584602F05EFE82681F92002C40F066
:10551800EE859AF8003076E70B9D5846294602F04A
:10552800B5FE002841F0AE83B5F90C3003F01A023D
:105538000A2A7FF42AAF0B99B1F90E20002AFFF648
:1055480024AF4A6ED20702D49B0541F1D18123468C
:1055580032460B99584601F025FD0C900C9863B023
:10556800BDE8F08F082200214846FFF711FB012310
:105578001E4421E7B6EB0A07054613D0389B0A9A62
:105588003B443893379B0133072B3793C2E900A775
:1055980012DC134608330A930C9B3B440C93002DF2
:1055A8007FF426AF389B002B41F0988100220B9B9B
:1055B8003792B3F90C3019E036AA0B99584601F026
:1055C8006DFD80B939AB0A93E6E736AA0B995846C0
:1055D80001F064FD002800F08E800F9B1BB10F992D
:1055E8005846FFF701FD0B9BB3F90C300B9A526E2E
:1055F800D20740F116815E0601F150830C9863B022
:10560800BDE8F08F940500201293002BCAD0002229
:1056180049A98DF82431012316468DF8AF20089347
:1056280011910F920D931392CDE91522079B13F058
:10563800020302D00899023108910799389D11F0A8
:10564800840405D10E9908980F1A002F00F3A8803A
:1056580082B10A98012201350DF1AF014260379AF3
:10566800389501320160072A379200F3C483024655
:1056780008320A927BB1379B2CAA0A99023501336A
:105688000A600222072B389537934A6000F3C183DA
:105698000B4608330A93802C00F0AA820D9BF61A59
:1056A800002E00F3F282079BD80500F143820A9A84
:1056B800119B13600D9B1D445360379B3895013334
:1056C800072B379300F34583134608330A93079B48
:1056D800590705D50E9B089A9E1A002E00F3B88329
:1056E8000C9B0E9A08998A42ACBF9B185B180C93C6
:1056F800002D7FF46AAF002337930F9B1BB10F99DE
:105708005846FFF771FC39AB0A9354E612934FF0F1
:10571800FF32109B073323F00701A24BF1E8024543
:10572800109125F0004124942591DDE92478CDE9F4
:10573800184538464146FBF727FA002840F05E85B1
:105748004FF0FF32974B38464146FBF7FFF90028E8
:1057580040F054850022002320462946FBF7ECF947
:10576800002841F0DD809DF8AF20079B00208E497E
:1057780023F080030F9007938C4B129C06461690DB
:10578800472CC8BF19461590139011910321089111
:105798000D91002A3FF44AAF089B0133089345E76F
:1057A800102F379A41F338828148294623964FF0C3
:1057B80010080B9D06461790CDE921340A9C02E09B
:1057C800103F102F17DD01321031072AC4E9006895
:1057D800CDE9372104F10804F2DD36AA29465846F6
:1057E80039AC01F05BFC00287FF4F7AE103F102FB6
:1057F800DDE93721E7DC0A940D46219B239E229C94
:1058080001320A9917983D44072A4F600860CDE98C
:10581800372500F35D860A4608320A929DF8AF20C4
:1058280016E79F053FF5E7AE0B9CA06DFFF746FA1C
:10583800B4F90C30DFE6079B43F0200307939AF88E
:105848000030E0E5109A432B129302F1040600F0B1
:10585800FF85079BDF0600F1FB85109B49AD1B68A0
:105868008DF82431012308930D930022CDE91065AA
:105878008DF8AF2016460F921392CDE91522D5E682
:10588800109F129300238DF8AF3057F8043B119303
:10589800002B00F0CC85129B532B00F03C86079B15
:1058A80013F01003139340F03686741C01F0048043
:1058B80032461399119803F0BBFE0F90002801F0AF
:1058C80011830F9B119A139E9B1A10979DF8AF2076
:1058D8000D9323EAE3730F9608937323CDE91566B6
:1058E800129356E71293079B9D0640F10881109B7F
:1058F800073323F007031A46596852F8083B1092F9
:105908000A460029C0F25B84711C00F0E582079901
:1059180021F080010791002E40F0DE8253EA020157
:1059280014BF0121002140F0D78262AB0E460D91D1
:10593800119372E0109B53F8042B002A0E9280F208
:10594800F3830E9A109352420E92079B43F004037E
:1059580007939AF8003056E52B238DF8AF309AF864
:10596800003050E5079B43F0800307939AF8003016
:1059780049E5514611F8013B2A2B01F0D482A3F1E5
:1059880030028A460026092A3FF63FAD06EB860616
:105998001AF8013B02EB4606A3F13002092AF5D9B1
:1059A80033E500BFFFFFEF7F58AF00085CAF00088A
:1059B800ACAF0008079B7820109A43F0020447F622
:1059C80030039549ADF8B03052F8043B1C910221E0
:1059D8001092002212900020771C8DF8AF0000F082
:1059E8008A8124F08000079053EA020040F0828107
:1059F800301E18BF0120002E40F07C81002940F0A5
:105A0800668214F001030E460D9300F0FF823023E6
:105A18008DF887310DF2871311930D9900239DF8A6
:105A2800AF20B1420F931393B8BF3146CDE9153378
:105A38000891AEE6079B9D0640F1CA83109B0C9A1D
:105A48001B681A60D2175A60109B04331093B2E493
:105A5800079B43F0010307939AF80030D3E49DF8BD
:105A6800AF209AF80030002A7FF4CDAC20228DF8C0
:105A7800AF20C8E41293079B43F010030793079BDA
:105A880013F0200200F02283109B073323F0070352
:105A980019465A6851F8083B1091079921F4806417
:105AA800002198E79AF80030682B00F0B684079A2E
:105AB80042F040020792A6E41293079B43F01004B9
:105AC80014F0200200F0F482109B0121073323F028
